:4000000000800020110000003D1500003D15000008B5044B1A6803F53F5302331A6001F0ADFA00BFFA46004010B5054C237833B9044B13B10448AFF300800123237010BD2B
:400040001883FF1F00000000C0330000084B10B51BB108490848AFF300800848036803B910BD074B002BFBD0BDE81040184700BF000000001C83FF1FC0330000C880FF1F78
:40008000000000000B4B9B7B012B08D1094B00229A814FF6FF7159811981DA8070473BB9044B4FF6FF729A81002159811981DA80704700BFEC80FF1F044B4FF6FF719981E3
:4000C00000225A811981DA80704700BFEC80FF1F08B5034B99730146024800F0AFFB08BDEC80FF1FCC80FF1F08B500210520FFF7EFFF08BD08B501210846FFF7E9FF08BD98
:4001000008B501210420FFF7E3FF08BD08B501210320FFF7DDFF08BD08B501210220FFF7D7FF08BD08B501210846FFF7D1FF00210120FFF7CDFF08BD08B500210420FFF740
:40014000C7FF08BD08B500210320FFF7C1FF08BD08B500210220FFF7BBFF08BD08B500210120FFF7B5FF08BD30B589B03C4B0FCB08AC04E90F009DF81E30012B12D1394BF0
:400180001B78DBB2162B05D8364A13780133DBB2137002E00022334B1A70324B1B788DF8153027E033BB2F4B5B78DBB23A2B05D82C4A53780133DBB2537017E0049BDB89FC
:4001C0008BB9284B1B78DBB2162B05D8254A13780133DBB2137002E00022224B1A70214B1B788DF8153000221E4B5A701D4B5B788DF8143008AB13E90F008DE80F00184B0A
:400200009B6993F82020012A02D1586A01F064FE134C9DE80F0084E80F000023636102232374A36993F82020012A02D1586A01F0F9FF0B4B9B695D699B6873B13DB90CE022
:40024000996855F8240001F0DFFC013400E00024034B9B691A699442F2D309B030BD00BFEC80FF1F3483FF1F38B502F099F8012803D11F4A9378013393701D4B9B78132B02
:4002800035D91C4C03202070FA22114601F098FA2478194B9B6893F82020012A02D1586A01F01AFE144B1C7000225A6002225A709B6893F82020012A02D1586A01F0B2FFA3
:4002C0000D4B9B685D699B6873B13DB90CE0996855F8240001F098FC013400E00024064B9B681A699442F2D30022014B9A7038BD3483FF1F8884FF1F2481FF1F38B50546CB
:40030000104B9B6893F82020012A02D1586A01F0E3FD0C4B1C789B6893F82020012A02D1586A01F07FFF15F0040F01D04FF0040415F0020F01D04FF00504E1B2024800F0EF
:400340007DFA38BD2481FF1FDC80FF1F30B58DB0294B9B6993F82020012A02D1586A01F0BBFD254B9B6993F82020012A02D1586A01F058FF204B08AD0FCB85E80F0004AC99
:4003800084E80F008DE80F001C4B9B6993F82020012A02D1586A01F09FFD184C9DE80F0084E80F000023636102232374A36993F82020012A02D1586A01F034FF0F4B9B698C
:4003C0005D699B6873B13DB90CE0996855F8240001F01AFC013400E00024084B9B691A699442F2D3054B1B7C022B03D1034883695B6898470DB030BDEC80FF1F0881FF1F6B
:4004000070B506460D462821052000F0E3FB0C4C6189A08900F0E6FB304600F0C7FE00214FF6FF7000F0DEFB064800F0BFFEE188208900F0D7FB284600F0B8FE70BD00BFE8
:40044000EC80FF1FF034000030B591B0404B0C9304AC10AB13E90F0084E80F003D4B9B6993F82020012A02D1586A01F035FD394C04AB0FCB84E80F00002363610223237427
:40048000A36993F82020012A02D1586A01F0CAFE304B9B695D699B6873B13DB90CE0996855F8240001F0B0FB013400E00024294B9B691A699442F2D3274B089300238DF80C
:4004C00025308DF824304FF6FF72ADF82C20ADF82A30ADF82820ADF8263008AB0FCB8DE80F001C4B9B6993F82020012A02D1586A01F0F2FC174C9DE80F0084E80F000023C5
:40050000636102232374A36993F82020012A02D1586A01F087FE0F4B9B695D699B6873B13DB90CE0996855F8240001F06DFB013400E00024074B9B691A699442F2D3042065
:4005400000F058FB05480146FFF75AFF11B030BDDC80FF1FEC80FF1FCC80FF1FF434000000B583B000230193072001F0CDFB01A9032001F029FB019801F0F8FA019A032175
:40058000014800F035FEEFE7F834000010B5074C22680121064800F013FE23683233236013F5807F01D90022226010BD3883FF1F1435000008B5002001F080FA08BD00BF07
:4005C000684620F007018D4619B572B6EFF311841E4B1B68DBB20F2B10D9103B23F0030202F1604202F564421168DB0003F01803E0229A400A4022FA03F306E00F2B03D136
:40060000134B1B681B0E00E0002383F31188114A136801331360012B01D102F0C9F862B6FFF7C8FF72B684F3118801F04BFC094A1368013B13601BB902F0C3F802F087F8BC
:4006400062B6BDE819408546704700BF04ED00E020ED00E09884FF1F08B562B6054A064B1A60064A136843F002031360002001F06BFDFBE73F19010014E000E010E000E06E
:4006800008B501F0C3FE164801F0DAFE00F012FBFF2000F037FA134800F088FDFFF7D4FE01F052FE104A136843F00503136064221146002001F084F8FA221146012001F01C
:4006C0007FF84EF660221146022001F079F8032000F0B0FF012000F0ADFF01F07BFD08BD203500004435000010E000E000BFFDE738B501F04DFE012802D101221C4B1A70BB
:4007000001F04EFE012805D10222194B1A70032001F004F8164B1C78164B9B6893F82020012A02D1586A01F0D7FB124B1C7000225A6002225A709B6893F82020012A02D135
:40074000586A01F06FFD0B4B9B685D699B6873B13DB938BD996855F8240001F055FA013400E00024034B9B681A699442F2D338BD8884FF1F2481FF1F684620F007018D4654
:4007800019B572B6EFF311841E4B1B68DBB20F2B10D9103B23F0030202F1604202F564421168DB0003F01803E0229A400A4022FA03F306E00F2B03D1134B1B681B0E00E023
:4007C000002383F31188114A136801331360012B01D101F0EDFF62B6FFF78AFF72B684F3118801F06FFB094A1368013B13601BB901F0E7FF01F0ABFF62B6BDE819408546A1
:40080000704700BF04ED00E020ED00E09884FF1F10B400230BE0046803EB43018A00A15AC289914201D118B206E001339BB282889342F0D34FF0FF3010BC70472DE9F04754
:4008400081468846B0F80EA0FFF7E2FFB0F1FF3F6FD0D9F8001000EB400293001A460B445D681DB113460B441E8900E00026002D63D0002E65D0002456E0274604EB4402A1
:400880009300EB5A43454DD104EB440293002B445B6813B19847012844D17A00D1198B0019462B449E680D446D88D9F8083093B916E0D9F8081004EB44029300CB5A9A45D6
:4008C00006D104EB4402930019448B6803B198470134A4B200E00024B9F80C309C42E8D306B1B047D9F8083093B916E0D9F8081004EB44029300CB5A9D4206D104EB4402A7
:40090000930019444B6803B198470134A4B200E00024B9F80C309C42E8D3A9F80E500020BDE8F0870134A4B2A642A6D80020BDE8F0876FF01300BDE8F0876FF01600BDE85C
:40094000F0876FF01600BDE8F08700BF10B5074C22680121064800F033FC2368FA33236013F5807F01D90022226010BD3C83FF1F5835000010B50446013001F061FD0648AB
:4009800001F05EFD04F1110001F05AFD034801F057FD002010BD00BF743500004035000038B5134B988908B319461C89631C9BB2104AA2FB03525209642505FB12330B814B
:4009C0000138888101EB44018B7B13B1012B04D006E0002001F0B8FD02E0012001F0B4FD034B03EB4404E07B01F062FD38BD00BF4083FF1F1F85EB5130B5ABB01B4B9B89FB
:400A0000632B17D92AAD032305F8A83D184B1868CDF80100174C0FCCCDF81100CDF81510CDF81920CDF81D302846FFF7A3FF6FF0070019E00D4D6C89621C92B205EB4404F4
:400A4000A073E1730C49A1FB02014909642000FB11226A8101339BB2AB81012B03D1FFF79FFF002000E000202BB030BD4083FF1FD03A0000D43A00001F85EB512DE9F041E3
:400A800080460E4617461D462A210020FFF7B4FF00210120FFF7B0FF194C94F8D6104144C9B20120FFF7A8FF00210120FFF7A4FF94F8D6103944C9B20120FFF79DFF2B2188
:400AC0000020FFF799FF00210120FFF795FF94F8D7103144C9B20120FFF78EFF00210120FFF78AFF94F8D7102944C9B20120FFF783FF2C210020FFF77FFFBDE8F08100BF0A
:400B00004083FF1F08B5642800D9642001F04EFD08BD00BF10B5044636210020FFF76CFF04F003002A4B83F8D80003284ED8DFE800F00215283BC2210120FFF75DFF244B81
:400B4000A022A3F8DA208022DA8093F8DC2083F8D62093F8DD2083F8D72010BDA2210120FFF74AFF1A4BA022DA808022A3F8DA2093F8DC2083F8D72093F8DD2083F8D62096
:400B800010BD08210120FFF737FF114BA022A3F8DA208022DA8093F8DC2083F8D62093F8DD2083F8D72010BD62210120FFF724FF074BA022DA808022A3F8DA2093F8DC209B
:400BC00083F8D72093F8DD2083F8D62010BD00BF4083FF1F024BA3F8DE00A3F8E01070474083FF1F024BA3F8E200A3F8E41070474083FF1F08B90120FFE7014B18717047EF
:400C00004083FF1F2DE9F0411F46BDF818501F4BB3F90630834236DD90461C4AB2F8DA20914230DA00EB0804013C9C4202DB1B1A0FFA83F87B18013B9A4201DC571A3FB297
:400C4000C0B2C9B2CB19013B00EB0802013ADBB2D2B2FFF713FF2E0AEDB2012001F074FC0FE031460220FFF7C7FE29460220FFF7C3FE013C24B200E04446002CF1DC013F84
:400C80003FB2002FF8DCBDE8F08100BF4083FF1F00B583B0064AB2F9DA30B2F90620009000210846FFF7AEFF03B05DF804FB00BF4083FF1FF8B5364B8022DA80A022A3F8FC
:400CC000DA20002483F8D840A3F8DE40A3F8E04001251D714FF6FF72A3F8E220A3F8E4405D711C6083F8DD4083F8DC4083F8D64083F8D7401C815C819C8101F017FC284664
:400D000001F02EFC642001F0DDFC204601F028FC642001F0D7FC284601F022FC142001F0D1FC29462046FFF767FE322001F0CAFC11212046FFF760FE782001F0C3FC0F227A
:400D4000144D14E02C4614F8021B0020FFF754FE6A78254606E06E1C29780120FFF74CFE22463546531EDCB2002AF4D13A46531EDFB2002AE6D10220FFF7CCFE0020FFF730
:400D800087FF01F059FC642001F010FCF8BD00BF4083FF1F79350000002821DB114BB3F9063098421CDA00291ADB0E4BB3F8DA30994215DA10B51446C0B2C9B24B1C421CEA
:400DC000DBB2D2B2FFF75AFE012001F0BDFB210A0220FFF711FEE1B20220FFF70DFE10BD704700BF4083FF1FF8B51E46164BB3F90630834226DD1546134BB3F8DA30994239
:400E000020DA0A44013A934201DC5D1A2DB2C0B2C9B24B19013BDBB20246FFF72FFE370AF6B2012001F090FB08E039460220FFF7E3FD31460220FFF7DFFD25466A1E14B299
:400E4000002DF2D1F8BD00BF4083FF1F2DE9F04F8BB00290039115460493BDF850709DF854A07F4B1A68002A40F09080B3F906300146834240F3F180794BB3F8DA3003982B
:400E8000984280F2EA800AEB4A0253000B44012B00F1E38000EBCA03012B00F1DE804FF00008894683460595049E4EE0059B03EB830343446B4A134493F8585000243EE081
:400EC00015F0010F1BD0BAF1010F09D104EB0B0108EB0900324609B200B2FFF75DFF2BE01FFA8AF00FFA8AF204FB00B108FB00900096134609B200B2FFF784FE1CE0BE42F9
:400F00001AD0BAF1010F09D104EB0B0108EB09003A4609B200B2FFF73FFF0DE01FFA8AF00FFA8AF204FB00B108FB00900097134609B200B2FFF766FE013464B26D08072C28
:400F4000BEDD08F101084FFA88F8B8F1040FADDD049BBB4200F08180BAF1010F08D1029805303B460822039900B2FFF73DFF74E01FFA8AF303EB8300029A10440097DB00ED
:400F80005246039900B2FFF73DFE66E0137AEB1ADBB2506800EBC301D2F800B030F8337091F80280CB78079391F90530089391F906200992BAF1010F04D91BB2059313B2BA
:400FC000069302E000230693059300231C46994640E05E1CF6B213F0070F03D17B1C1BF807409FB214F0800F27D0BAF1010F0DD1099B039A99184944089B029A9818284450
:40100000049A09B200B2FFF7C7FE16E0059B58191FFA8AF3069A02EB09010FFA8AFE039A01FB0321029A00FB0320049B00937246734609B200B2FFF7E5FD6400E4B2013596
:40104000EDB2334600E000254545C2D309F101095FFA89F9079A9145F5D30BB0BDE8F08F4083FF1F7835000070B582B04E4B1B68002B43D10A280BD14B4B0022A3F8DE2098
:401080001979B3F8E02002EBC102A3F8E02088E00D2800F08680444B5B79ABB1424A117901EB41046300B2F8DE402344B2F90620934209DD3C4B0022A3F8DE20B3F8E02004
:4010C00002EBC101A3F8E010374CB4F8E230B4F9E010B4F9DE5022790192B4F8E420009202462846FFF7B2FE237903EB43035A00B4F8DE301344A4F8DE3052E00A280CD10B
:40110000294A0021A2F8DE10997A1079B2F8E03000FB0133A2F8E03043E00D2841D01A7A90423ED3597A88423BD8821A5C6804EBC204A278E1785AB351B394F905501A49F6
:401140004979A9B118490E792A44B1F8DE5002FB0652B1F906108A420ADD134A0021A2F8DE109B7AB2F8E01006FB0316A2F8E0600D4AB2F8E230B2F9E010B2F9DE5016799F
:401180000196B2F8E420009202462846FFF75EFE2179054B1879B3F8DE2000FB0122A3F8DE2002B070BD00BF4083FF1F10B5044602E00134FFF758FF20780028F9D110BD2C
:4011C000F8B506460F46154600240DE006EBC4039A88B5FBF2F302FB13531BB956F83430002098470134A4B2BC42EFD3F8BD00BFF8B505460E461746002409E005EBC403B2
:401200005868384202D055F8343098470134A4B2B442F3D3F8BD00BF70B586B006462023039300240494ADF8144000930194ADF80840094D0279294603A801F09DFC7279AD
:401240002946684601F098FC03A96846FFF7D8F8204606B070BD00BFE43A000000207047FEE700BFF0B40022174611E050F82760F3B226F0FF0608E001EB420511F81240F2
:401280006D78A5550132013BDBB2002BF4D101372B2FEBD9F0BC704738B500242E4B1C80582202331A70082202331A8018232B4A13702C2102321180023213704D210232B4
:4012C00011800232137043F63F0102321180023213700622224B1A705222A3F580731A70204B1B78DBB2204A13704FF4E3621F4B1A8042F25122023B1A8019250CE01C4BF6
:401300001B7803F0010343EA440404F003044FF4F07001F0D5FA013D0DB1032CEFD115B90320FFF79DFF134A4FF48073138007231370002310490B70482002310870137082
:401340000532137002220D4B1A700D4A137843F01F03137038BD00BF8040004086400040004300400F010049A1460040224200402542004004400040064000400140004060
:40138000A243004008B50A46002101F0ECFB08BDF8B5164B1B78DBB2154E3478E4B2154F3D78EDB203F00701134A11701B090132137044F00303337045F003033B70032217
:4013C0000E4B1A7040230E4A13700232137030220C4B1A70202203331A700A2001F088F93D7034704422084B1A70F8BDCF010049F8460040F94600406E5800400D51004041
:4014000001590040205B00407658004008B501F09FFB08BD38B572B66122324B1A70FFF73BFF00240CE0304D630019194A0011462A44084691882858FFF7A4FF0134E4B2F1
:40144000062CF0D929494FF09040FFF70BFF04212748FFF797FF042226492748FFF7D6FF264A137843F0020313701032137843F002031370224C237843F040032370A2F51A
:401480008632513A137843F01003137008221D491D48FFF7BBFF0A221C491D48FFF7B6FF0A221C491C48FFF7B1FF08221B491C48FFF7ACFF08221B491B48FFF7A7FF08226A
:4014C0001A491B48FFF7A2FF1A4A137843F008031370FFF75DFF0E2221461748FFF796FF38BD00BF00480040683B0000B0000048007600407C0D004808760040035001405C
:40150000A0430040440D0048025100404C0D0048C0510040580D0048F0510040640D0048125100406C0D004822510040740D00483251004022430040B043004008B501F05A
:40154000DBFA03680C2B00D1FEE7FEE708B5094B1A681044084BC31A802B02DC054B186005E001F0C9FA0C2303604FF0FF32104608BD00BF3081FF1F188FFF1F08B5104ECD
:40158000104D16E029686B68AC68002204E051F8040B43F8040B0432A242F8D1E868002203E0002143F8041B04328242F9D11035013E002EE6D101F0A5FAFFF74DF8FEE728
:4015C00001000000FC3E000008B5114A114B1A60114A136843F40073136000230AE0032B03D80E4A52F8231000E00D490D4A42F8231001332F2BF2D90B4B1A780B4B1A70C9
:40160000084A0B4B1A60FFF705FF01F03FF808BD0004FA050CED00E014ED00E0000000003D1500000080FF1FBC760040C080FF1F08ED00E038B5EFF3108572B604284ED871
:401640002D4B53F82030002B4BD02B4A013B42F820302A4B53F82030032B07D10222274B43F820200022264B43F8202000F0EEFC244B1B68002B36D1234B1C6800F0C4FC01
:40168000B0F1FF3F31D0214B53F82020204B1B689A422CD9B4F1FF3F03D00221174A42F824101C4A52F820201343194A13600022124B43F8202000F063FC174B53F820307A
:4016C0004BB10024144B43F8204040F0004001F081F820460CE001F07DF8002008E0032006E0042004E0002002E0002000E0002085F3108838BD00BFA481FF1F5082FF1F0C
:401700005884FF1F9884FF1F3882FF1FA43D00007484FF1F7C3D00003084FF1FEFF3108272B603283CD803012249CB58002B39D010B400EB40018B001F49CC581F4B03EB1B
:40174000C4035968884209D11A4B03EB0013D9681A4B03EBC40461600DE01946154B03EB0113DB689842F8D1124B03EB0014E46803EB0111CC600F4B03EB0013DC68B4F10B
:40178000FF3F08D00B4B03EB0011896803EB04139C6821449960030100200649C85005E0032000E0052082F31088704782F3108810BC7047C884FF1FF03C00004481FF1F01
:4017C000F8B5EFF3108472B6032825D800EB4005AB00184DEB5803EB4306B500164E75598D421BD34AB103EB43039E00124B1E44B3689A4214D3954214D3A9B103010F4D36
:40180000EB589BB90301EE180127EF507260013900F086F800200AE0032008E0082006E0082004E0082002E0082000E0072084F31088F8BDF03C0000403D0000C884FF1FE7
:4018400018B108B5C368984708BD704708B508B1406800E00020042816D80C4B53F8203093B10A4A013B42F82030094B53F82030032B07D10222064B43F820200022054B7D
:4018800043F8202000F0E2FB08BD00BFA481FF1F5082FF1F5884FF1F18B1034640689B6801E00023184604281DD80F4A52F82020CAB10E4A52F82010032914D010B50C4C92
:4018C00054F820201A4344F820200A4A52F82020134207D0012905D10222044B43F8202000F0B4FB10BD7047543D00005082FF1F5884FF1F4484FF1F80B108B50378012B72
:4019000006D013B1032B06D008BDFFF79FFF08BDFFF7C2FF08BDFFF793FF08BD704700BF30B400EB40029300214AD258214B03EBC2035C68B4F1FF3F04D11E4B03EBC202BD
:4019400050602DE01C4B03EB04139B6899420AD2184D05EBC2025060174A02EB04125B1A93601DE01C46144B03EB04139A68891ADB68B3F1FF3F05D00F4A02EB0312926838
:401980009142EFD2B3F1FF3F05D00B4A02EB031295686D1A9560084A02EB0414E0601C46054B03EB00108160C46030BC704700BFF03C00004481FF1FC884FF1F38B5394A75
:4019C00002EBC0035C6852F83030013342F8303000EB40018A0034498A58934203D90022304B43F83020B4F1FF3F59D02F4B03EB04139B68002B4ED1214600E019462B4B19
:401A000003EB0113DB68B3F1FF3F05D0274A02EB03129268002AF1D0244A02EB01114FF0FF32CA601F4A02EBC0004360B3F1FF3F07D01E4A02EB03139A68013A9A6000E057
:401A40002C4604EB44029300194A13441B7A7BB904EB44029300164A13445A68154B53F8223003EB83039A0013481044FFF744FF0E4B03EB0413DD68596821B1013920469F
:401A8000FFF74EFF03E024010022084B1A51B5F1FF3FD5D138BD054A02EB0414013BA36038BD00BF4481FF1F403D0000C884FF1FF03C0000303D0000A03C000038B5EFF327
:401AC000108572B6002838D1FFF778FF204B1B68002B34D11F4B1C6800F096FAB0F1FF3F2FD01D4B53F820201C4B1B689A422AD9B4F1FF3F03D00221194A42F82410194A58
:401B000052F820201343154A13600022144B43F8202000F035FA144B53F820304BB10024114B43F8204040F0004000F053FE20460AE000F04FFE002006E0032004E000205C
:401B400002E0002000E0002085F3108838BD00BF9884FF1F3882FF1FA43D00007484FF1F5082FF1F7C3D00003084FF1FEFF3108372B6114A1168114A126882B9B1F1FF3FBA
:401B80000FD00F4A52F821206AB110B40D4C54F8212022EA000044F82100002007E0022002E0022000E0012083F31088704783F3108810BC704700BF3882FF1F9884FF1FDF
:401BC000543D00005884FF1F04280FD80B4B53F820306BB10A4B53F82030032B0AD059B1084B53F820300B60002070470320704701207047072070470E207047543D000002
:401C00005082FF1F5884FF1F38B5EFF3108472B6042853D8324B53F82030002B50D0314B53F82030032B4DD02F4D55F820200A4345F820202D4A52F82020114244D0012BAC
:401C400044D10222274B43F8202000F0FFF9284B1B68002B3CD1274B1D6800F0D5F9B0F1FF3F37D0244B53F82020244B1B689A4232D9B5F1FF3F03D002211A4A42F825100D
:401C80001F4A52F8202013431C4A13600022154B43F8202000F074F91A4B53F820304BB10025184B43F8205040F0004000F092FD284612E000F08EFD00200EE003200CE092
:401CC00001200AE0072008E0002006E0002004E0002002E0002000E0002084F3108838BD543D00005082FF1F5884FF1F4484FF1F9884FF1F3882FF1FA43D00007484FF1F30
:401D00007C3D00003084FF1F38B5EFF3108472B63A4B1D683A4B1B68002B63D1B5F1FF3F62D0384B53F82530B3F1FF3F5ED1364B53F82530002B5BD0344B53F825300342F7
:401D400058D1334B43F825000122324B43F82520314B53F8250031490B6823EA00030B602F4B43F825202F4B53F82520234B1A6000F04AF9B0F1FF3F06D02B4B53F8202013
:401D8000264B1B689A420DD81C4B1868B0F1FF3F03D000221F4B43F8202040F0004000F019FD1AE000211B4A42F820101A4A52F820201343194A136000F0E2F8184B53F8DC
:401DC000203043B10022164B43F8202040F0004000F000FD01E000F0FDFC00200C4B43F8250008E0022006E0022004E0062002E0012000E0002084F3108838BD3882FF1FA8
:401E00009884FF1F5481FF1F543D00005884FF1F4484FF1F5082FF1F7C3D00007484FF1F3084FF1F3C82FF1FA43D000008B500F0A7F8084B53F8203043B10022054B43F8DB
:401E4000202040F00040044B186008BD024B186008BD00BF3084FF1F9C84FF1F10B500F0D3F8124B1B68B0F1FF3F1AD0104A52F82010104A1268914213D9B3F1FF3F03D088
:401E800002240D4941F8234000210B4B43F820100A4B53F820301A43064B1A60FFF7C6FF10BD43F00043064A136010BD3882FF1FA43D00007484FF1F5082FF1F7C3D00000A
:401EC0009C84FF1F034B1B6813B10022014B1A60704700BF8C84FF1F204B1A68204B1968EFF3108372B6012829D830B41D4C54F8204044BB51B9B2F1FF3F26D01A4C54F858
:401F000022501A4C54F82040A54220D809BB184951F82250174C44F8205041F822000121104A42F8201014490C68144A42F820400E4A52F8202022430A6000200AE0032067
:401F400083F310887047012004E0012002E0012000E0012083F3108830BC70473882FF1F9884FF1F2884FF1FA43D00004C3D00005481FF1F4C81FF1F7484FF1F0885FF1FDC
:401F8000F0B4184B19880B0A174AD356B3F1FF3F01D1535601E008335BB2144D55F82320134850F82200134E56F8224045F82340114D2F6846F822702A60B4F1FF3F09D1E1
:401FC0000E4A42F82340012202FA03F321EA0301044B19800A4B19680A4A42F820101860F0BC70477084FF1F943B0000F881FF1FA084FF1F7C81FF1F6C84FF1FB881FF1F37
:402000003882FF1F3C82FF1F0C4B1A88130A0C49CB56B3F1FF3F01D18B5601E008335BB2B3F1FF3F06D0074A52F82320064B53F8220070474FF0FF30704700BF7084FF1FA1
:40204000943B0000F881FF1FA084FF1F30B4144B53F82020134C2368134951F823502560124C44F823004FF0FF3441F82340104951F82210A1420AD10E4951F820400E48B0
:402080000188214301800D4941F8223002E0064840F82130064941F8223030BC704700BF9081FF1F6C84FF1F7C81FF1FA084FF1FB881FF1FA43D00007084FF1FF881FF1F61
:4020C00010B150F8210070474FF0FF30704700BF0122014B1A60FEE79484FF1F70B50546124B53F8306000241CE0104B03EBC50321465868FFF7E4FF0D4A52F82030013B11
:4021000042F820300B4B53F82030032B07D10222084B43F820200022074B43F82020FFF795FF0134B442E0D370BD00BF943C0000A481FF1F5082FF1F5884FF1F18B908B55E
:40214000FFF7CCFF08BD7047194B1A4ADA621A4A9A631A4ADA63EFF3108272B6184B1B6813BB10B5044600F0EFF8164B1C600122134B1A602046FFF7E1FFFFF745FFB0F1F7
:40218000FF3F0ED0104B53F82030104A11680B43136000220E4B43F82020FFF7F1FE00F019FB62B6FFF794FF82F31088072070470080FF1F9527000059270000C10500006E
:4021C0009484FF1F1085FF1F7C3D00007484FF1F5082FF1F08B5EFF3108272B60D4B19680D4B1B6863B90D4B53F82130B3F1FF3F08D14FF0FF300A4B43F82100002002E03E
:40220000022000E0062010B9084600F03CFB82F3108808BD3882FF1F9884FF1F5481FF1F6881FF1F70B53C4B1A683C4B1B68EFF3108572B601285BD8394951F82010002903
:4022400058D0384951F82210884255D153B9B2F1FF3F53D0344C54F82260344C54F82040A6424DD8002B4DD1314C54F821402D4941F8224000212A4A42F820102D4A52F86F
:4022800020102D4A1160002B3ED1234B1C68FFF7BBFEB0F1FF3F39D0234B53F82030264A1268934234D9B4F1FF3F03D00221234B43F82410224B53F8203013431E4A13607F
:4022C00000221E4B43F82020FFF75AFE1D4B53F820304BB100241B4B43F8204040F0004000F078FA204614E000F074FA002010E003200EE005200CE005200AE0012008E092
:40230000012006E0012004E0002002E0002000E0002085F3108870BD3882FF1F9884FF1F2884FF1F5481FF1FA43D00004C3D00004C81FF1F0885FF1F7484FF1F5082FF1F5D
:402340007C3D00003084FF1F38B50D4B1D68EFF3108472B600F0EEF90A4A136843F07F431360094B2B650721042000F0CBF9074A136843F01003136084F3108838BD00BF30
:4023800008ED00E020ED00E07907000000E100E0024B1878C0F3C000704700BF01510040024B1878C0F30010704700BF015100407222074B1A70202203331A700622673BDE
:4023C0001A70472210331A70022253331A7070478865004010B500F07BFA04460A4A137843F0200313700332137843F010031370043A137843F01003137000F02BF9204644
:4024000000F06AFA10BD00BF9865004008B5054B1B7823B9FFF7CCFF0122024B1A70FFF7D9FF08BD7C84FF1F034B1B7813F0040FFAD1024B18707047676500404765004051
:4024400038B5074B1B782BB938BDFFF7EDFF0134A4B201E005460024285D0028F5D138BD7C84FF1F08B500F033FA0A4A137843F020031370073A137843F010031370033212
:40248000137843F01003137000F026FA00F0F0F808BD00BF9F640040014B1878704700BF68640040014B1878704700BF6B640040034B1B7813F0040FFAD0024B187070470D
:4024C000686400404B64004008B501E00A4B1B780A4B1B7813F0200FF8D100F0F9F9084B1A7842F001021A701A7802F0FE021A7000F0F2F908BD00BF5B6400406B64004077
:402500009B64004008B50F22064B1A70FFF7DCFFFFF7C2FFFFF7C6FF0023034A13700332137008BD8F6400408864004008B5054B1B7823B9FFF7E6FF0122024B1A70FFF73A
:4025400091FF08BD7E84FF1F044A137803F0F703C00000F00800184310707047C0510040044A137803F0EF03000100F0100018431070704730510040084A137843F001035F
:4025800013701032137843F00103137002F64D32137843F001031370704700BFA3430040014B1880704700BF044F0040014B1880704700BF064F0040014B1870704700BF93
:4025C000034F004008B5194A137843F0020313700232137803F08F0343F010031370144B1A7802F0CF021A701A7842F030021A701A7802F0F0021A701A7842F00F021A70B9
:402600006420FFF7CDFF0020FFF7D0FF0020FFF7D3FF084A137843F00103137002F65E32137843F00103137008BD00BF004F00400B4F0040A343004008B5054B1B7823B9D4
:40264000FFF7C0FF0122024B1A70FFF795FF08BD7F84FF1F054A137843F0080313701032137843F008031370704700BFA2430040054A137843F0010313701032137843F0E3
:4026800001031370704700BFA24300400B4A7F2313708021517007E0DA0002F1804202F5F042013BDBB21370002BF5D1DB0003F1804303F5F04300221A7070479882FF1FE8
:4026C00001BE704710B5044605E0084B186800F0F7F8A4F50044B4F5004FF6D8034B586800FB04F000F0ECF810BD00BFA082FF1F08B5034B1B7A00FB03F000F0E1F808BD62
:40270000A082FF1F38B504460D46072902D90020FFF7D6FF1F2C02D90020FFF7D1FF04F01F0000F1604000F564406D01EDB2057038BD00BF18484FF47F0102680A4302601E
:4027400016486FF07F4102680A400260704714484FF080510160704772B611484FF000610160FFF77BFB0F48006800F005F958B10C4800684FF080730B4A0C490FB40FB4C9
:402780006FF00600004700BF6FF0060062B6004762B600DF08B0704720ED00E01CED00E004ED00E09C84FF1FD527000091270000EFF30880054908600548006880F3088813
:4027C00070470248006880F308887047B082FF1F8C82FF1F411C8900154A11440968154A136899421AD0F0B444464D4656465F46F0B400B5104C9B002344EFF308851D60EB
:40280000116089002144096881F3088802BC8E46F0BCA046A946B246BB46F0BC002806DB00B500F09DF802BC8E46FFF7D3BF7047E03D00007884FF1F9082FF1FF0B4444663
:402840004D4656465F46F0B400B5EFF3038308B48000174901440968164A0244EFF30883136088471448804704BC4FF08070024382F3038801BC8646F0BCA046A946B246C3
:40288000BB46F0BC704780000A4901440A6882F3088804BC4FF08070024382F3038808BC9E46F0BCA046A946B246BB46F0BC7047B83D0000B484FF1FE12800000000000018
:4028C0000230800803D000BF01380046FCD17047EFF3108072B6704780F31088704700BF10B572B6034B1C68204600F00DF82046FFF7C9FF3882FF1F08B5024B1868FFF721
:402900009DFF08BD3882FF1F10B4104B53F820304FF0FF310BE00E4A52F823200B4941F8202000240B4941F8234019461346B3F1FF3FF0D1B1F1FF3F04D0074B53F8212097
:40294000064B1A60084610BC704700BF5481FF1F4C81FF1F2884FF1F0885FF1F7484FF1F08B562B6FFF7C8FF72B600F041F8014B186808BD9C84FF1F00280BDA20F0004084
:402980000130054B53F82000044B1B68181A18BF0120704701207047E03D00007884FF1F054B53F82020054B53F820309A4201D10120704700207047A481FF1F683D00005E
:4029C00008B5FFF7DDFA084B53F8203043B10022054B43F8202040F00040044B186008BD024B186008BD00BF3084FF1F9C84FF1F38B5364B1C680022354B1A60354A52F852
:402A00002430013342F82430334B53F824502046FFF7C6FF012801D0A54204D103222F4B43F8242003E002222C4B43F824202C4B53F824102B4A136823EA010313602A4B72
:402A400053F82440214B1C60B5F1FF3F0FD0234B53F82530032B07D10222204B43F825200022224B43F825202846FFF7EFFAFFF7CBFAB0F1FF3F0BD1B4F1FF3F03D000222F
:402A8000164B43F8242044F00044194B1C6038BD184B53F82020134B1B689A4208D800220E4B43F8242044F00044114B1C6038BD00210A4A42F82010094A52F8202013430D
:402AC000084A1360FFF77CFF38BD00BF3882FF1F8C84FF1FA481FF1F6881FF1F5082FF1F7C3D00007484FF1F3C82FF1F5884FF1F9C84FF1FA43D0000014B1868704700BFA6
:402B00001483FF1F0E4B70B51E460E4C0025E41AA410A54204D056F8253098470135F8E701F0DAF9084B094C1E46E41AA4100025A54204D056F8253098470135F8E770BD55
:402B4000E43E0000E43E0000E43E0000EC3E000010B5431E0A44914204D011F8014B03F8014FF8E710BD03460244934202D003F8011BFAE7704700000EB400B54FF402714C
:402B80009CB0ADF814106FF00041049107914FF6FF711DAB02900690084853F8042BADF81610006802A9019300F064F8029B00221A701CB05DF804EB03B070471483FF1F8E
:402BC0002DE9F0478E6882469E420C46914698463ED88A8912F4906F3AD02568096902236F1A656905EB450595FBF3F57B1C43449D4238BF1D4653050FD5294600F040FB51
:402C0000064698B13A462169FFF7A2FFA38923F4906343F08003A38113E02A4600F08EFB064670B92169504600F0DEFA0C23CAF80030A3894FF0FF3043F04003A381BDE81B
:402C4000F08726613E44266046466561ED1BA560464528BF464649463246206800F0A8FAA36800209B1BA36023681E442660BDE8F08700002DE9F04F9DB003938B8980464B
:402C80001C060D4616460DD50B695BB9402100F0F7FA2860286118B90C23C8F80030CDE040236B610023099320238DF82930DFF89CB130238DF82A3037463C4614F8013B3D
:402CC0001BB9B7EB060910D003E0252BF9D02746F3E74B46324629464046FFF771FF013000F0A780099B4B4409933B78002B00F0A08000234FF0FF320493079305920693CF
:402D00008DF853301A930126052221784E4800F041FA671C049B38B14B4A3C46801A06FA00F018430490EFE7D90644BF20228DF853201A0744BF2B228DF8532022782A2A52
:402D400003D0079A00210A200BE0039A111D12680391002A10DA524243F00200079204900BE027463B780134303B092B03D800FB02320121F5E701B107923B782E2B1ED199
:402D80007B782A2B0AD1039B02371A1D1B680392002BB8BF4FF0FF33059310E0002319460593781C0A2407463A780130303A092A03D804FB01210123F5E703B1059103221B
:402DC0003978224800F0E6F940B14023CBEB000003FA00F0049B013718430490397806221B487E1C8DF8281000F0D4F988B1194B33B9039B073323F007030833039314E099
:402E000003AB00932A46144B04A94046AFF3008007E003AB00932A460F4B04A9404600F093F8B0F1FF3F824603D0099B5344099342E7AB895B0601D4099801E04FF0FF30B9
:402E40001DB0BDE8F08F00BFA23E0000A83E0000AC3E000000000000C12B00002DE9F04791461F460A698B6806469342B8BF1346C9F8003091F843200C46DDF8208012B1BF
:402E80000133C9F800302368990642BFD9F800300233C9F80030256815F0060510D104F1190A07E00123524639463046C04701301AD00135E368D9F800209B1A9D42F1DB79
:402EC00094F843302268003318BF012392060FD5E118302081F843005A1C94F845102244023382F8431003E04FF0FF30BDE8F08704F1430239463046C0470130F4D02268B9
:402F0000D9F80050E36802F00602042A08BF5D1B2269A3680CBF25EAE57500259342C4BF9B1AED184FF000091A344D4509D00123224639463046C0470130D5D009F101095A
:402F4000F3E70020BDE8F0872DE9F04317460A7E85B06E2A984606460C460C9B01F1430E00F0AE8011D8632A22D009D8002A00F0BB80582A40F0CA8081F84520834955E043
:402F8000642A1ED0692A1CD0C0E0732A00F0B08009D86F2A2ED0702A40F0B8800A6842F020020A603EE0752A24D0782A3AD0ADE01A6801F14205111D1960136884F842305A
:402FC000A8E021681A6811F0800F02D0111D196008E011F0400F02F10401196002D0B2F9003000E01368002B3CDA2D225B4284F8432037E021681A6811F0800F02D0111DC6
:40300000196007E011F0400F02F10401196001D0138800E01368227E5C496F2A14BF0A2208221BE078225A4984F845202268186812F0800F00F104051D6003D1550601D571
:40304000038800E00368D00744BF42F0200222601BB9226822F0200222601022002084F8430001E049490A226568002DA56008DB206820F0040020602BB9002D7DD17546EE
:403080000CE0002B79D07546B3FBF2F002FB1033CB5C05F8013D03460028F5D1082A0BD12368DA0708D5236962689A42DEBF302305F8013C05F1FF35C5EB0E0323612EE05C
:4030C00008681A6810F0800F496903D0101D1860136808E010F0400F02F104001860136801D0198000E0196000232361754616E01A68111D1960156800216268284600F07F
:4031000049F808B1401B6060636804E004F1420584F8422001232361002384F84330CDF800803B4603AA21463046FFF797FE013002D14FF0FF3026E023692A4639463046B3
:40314000C0470130F5D023689B0710D5002504F1190907E001234A4639463046C0470130E7D00135E368039A9B1A9D42F2DBE068039B9842B8BF184605E00B7804F14205CD
:4031800084F842308AE705B0BDE8F083B33E0000C43E000010B5C9B202449042034605D01C7801308C42F8D1184610BD002010BD884210B501EB020301D8421E0BE0984288
:4031C000FBD28118D21AD34204D013F8014D01F8014DF8E710BD994204D011F8014B02F8014FF8E710BD000038B50546002944D051F8043C0C1F002BB8BFE41800F0D4F8CB
:403200001E4A1368114613B96360146030E0A3420DD92268A018834201BF18685B681218226063600C6023E0A24203D813465A68002AF9D118681918A1420BD12168014482
:4032400058188242196013D110685268014419605A600DE002D90C232B6009E021686018824201BF106852680918216062605C602846BDE8384000F098B838BD8484FF1FEB
:4032800070B5CD1C25F0030508350C2D38BF0C25002D064601DBA94202D90C23336046E000F082F8234B1C681A462146A1B10B685B1B0ED40B2B03D90B60CC18CD501EE086
:4032C0008C420BBF63684B681360636018BF0C4615E00C464968E9E7174C23681BB9304600F052F820602946304600F04DF8431C18D0C41C24F00304A0420DD12560304688
:4033000000F053F804F10B00231D20F00700C31A0ED05A42E25070BD211A304600F034F80130EBD10C233360304600F03EF8002070BD00BF8484FF1F8084FF1FF8B50746DF
:4033400015460E4621B91146BDE8F840FFF798BF1AB9FFF749FF2846F8BD00F027F885420ED929463846FFF78BFF044650B131462A46FFF7EDFB31463846FFF735FF01E0D5
:403380003046F8BD2046F8BD38B5064C0023054608462360FEF7DAF8431C02D1236803B12B6038BD148FFF1F7047704751F8040C0028BEBF091851F8043CC01804387047EF
:4033C00000000000000000000000000000000000000000003034000002000000010000000C3400000300000002000000F4330000020000000200010000000000690100008B
:403400000400020000000000690100000200010000000000690100000300020000000000000000000100000000000000B90000000100010000000000850000000500000064
:40344000000000006901000000000000000000000000000000000000D83400000200000001000000A834000004000000020000007834000004000000010000000000000040
:403480005D01000002000200000000005101000003000200000000004501000004000200000000003901000001000200000000002501000002000100000000001901000087
:4034C00003000100000000000D0100000400010000000000010100000100010000000000F50000000500000000000000E90000003A00000030300000FD0200000100000034
:40350000FD02000002000000FD02000004000000030000006902000032000000010000002053797374656D20737461727465642C207561727420776F726B696E672E2E2085
:403540000A000000454C454354524F4E494320434C4F434B200A00004D030000FA0000000100000055415254207374617274656400000000203A20000FB103053C3CB20396
:40358000053C3CB306053C3C053C3CB40103C003280804C101C0C2020D00C3028D2AC4028DEEC5011A3601C0E0100422070A2E30252A28262E3A00010313E10F16060D2D5E
:4035C00026232727252D3B000104133A0105290000000000003E5B4F5B3E3E6B4F6B3E1C3E7C3E1C183C7E3C181C577D571C1C5E7F5E1C00183C1800FFE7C3E7FF001824A1
:403600001800FFE7DBE7FF30483A060E2629792926407F050507407F05253F5A3CE73C5A7F3E1C1C08081C1C3E7F14227F22145F5F005F5F06097F017F006689956A6060C6
:4036400060606094A2FFA29408047E040810207E201008082A1C08081C2A08081E101010100C1E0C1E0C30383E3830060E3E0E06000000000000005F0000000700070014DC
:403680007F147F14242A7F2A12231308646236495620500008070300001C2241000041221C002A1C7F1C2A08083E08080080703000080808080800006060002010080402D3
:4036C0003E5149453E00427F400072494949462141494D331814127F1027454545393C4A49493141211109073649494936464949291E0000140000004034000000081422BC
:40370000411414141414004122140802015909063E415D594E7C1211127C7F494949363E414141227F4141413E7F494949417F090909013E414151737F0808087F00417F87
:4037400041002040413F017F081422417F404040407F021C027F7F0408107F3E4141413E7F090909063E4151215E7F09192946264949493203017F01033F4040403F1F20FD
:4037800040201F3F4038403F631408146303047804036159494D43007F4141410204081020004141417F04020102044040404040000307080020545478407F284444383805
:4037C00044444428384444287F385454541800087E090218A4A49C787F0804047800447D40002040403D007F1028440000417F40007C047804787C08040478384444443889
:40380000FC1824241818242418FC7C08040408485454542404043F44243C4040207C1C2040201C3C4030403C44281028444C9090907C4464544C44000836410000007700DB
:4038400000004136080002010204023C2623263C1EA1A161123A4040207A385454555921555579412254547842215554784020545579400C1E5272123955555559395454A3
:40388000545939555454580000457C410002457D420001457C407D1211127DF0282528F07C545545002054547C547C0A097F4932494949323A4444443A324A4848303A41B0
:4038C00041217A3A42402078009DA0A07D3D4242423D3D4040403D3C24FF2424487E4943662B2FFC2F2BFF0929F620C0887E090320545479410000447D413048484A3238A4
:403900004040227A007A0A0A727D0D19317D2629292F28262929292630484D4020380808080808080808382F10C8ACBA2F102834FA00007B000008142A142222142A14083A
:403940005500550055AA55AA55AAFF55FF55FF000000FF00101010FF00141414FF001010FF00FF1010F010F0141414FC001414F700FF0000FF00FF1414F404FC14141710A3
:403980001F10101F101F1414141F00101010F0000000001F101010101F10101010F010000000FF101010101010101010FF10000000FF140000FF00FF00001F10170000FC50
:4039C00004F414141710171414F404F40000FF00F714141414141414F700F7141414171410101F101F141414F4141010F010F000001F101F0000001F14000000FC1400002B
:403A0000F010F01010FF10FF141414FF141010101F00000000F010FFFFFFFFFFF0F0F0F0F0FFFFFF0000000000FFFF0F0F0F0F0F3844443844FC4A4A4A347E0202060602FF
:403A40007E027E0263554941633844443C04407E201E2006027E020299A5E7A5991C2A492A1C4C7201724C304A4D4D303048784830BC625A463D3E494949007E0101017E87
:403A80002A2A2A2A2A44445F444440514A444040444A51400000FF0103E080FF000008086B6B083612362436060F090F06000018180000001010003040FF0101001F0101CA
:403AC0001E00191D1712003C3C3C3C000000000054465400427566666572206F766572666C6F770025303264000000005D1200000000000001000000000000000100000021
:403B0000143B000000000000000000000100000001000000030000000000000019120000000000000000000000000000000000000000000000000000000000000000000006
:403B400000000000191200000000000000000000000000000000000000000000000000000100000000000000004F00400C00405100403000000001400010001401400008CF
:403B800000400140000A004C014000020050014020000000FF000101020202020303030303030303040404040404040404040404040404040505050505050505050505059D
:403BC0000505050505050505050505050505050505050505060606060606060606060606060606060606060606060606060606060606060606060606060606060606060659
:403C000006060606060606060606060606060606060606060707070707070707070707070707070707070707070707070707070707070707070707070707070707070707D8
:403C40000707070707070707070707070707070707070707070707070707070707070707070707070707070707070707070707070707070707070707070707070707070784
:403C80000707070707070707070707070707070707070707010000009C3C00000000000000000000020000000000000000000000FFFFFFFF0000000004000000000000009D
:403CC00000000000FFFFFFFF01000000030000000200000000000000FFFFFFFF01000000030000000400000000000000FFFFFFFF00000000000000000000000000000000C2
:403D00000100000000000000000000000200000000000000000000000300000000000000000000000100000002000000030000000000000001000000020000000300000071
:403D4000E8FD0000010000000000000010000000020000000000000000000000000000000100000000000000010000000100000001000000010000000100000080000000C5
:403D8000010000000200000010000000100000000100000002000000040000000000000001000000010000000100000002000000100000001000000081060000ED0600003A
:403DC0008D050000610500004D090000F9280000F9280000F9280000F9280000F9280000000000000000000000000000000000000100000000000000616C61726D5F3530FE
:403E00006D730000616C61726D5F3235306D7300616C61726D5F316D696E0000616C61726D5F3235306D73457600000065765F6576656E745F6F6E446174610065765F31C3
:403E40006D696E0065765F3235306D73000000007265735F636C6F636B0000007265735F6576656E7400000074736B5F696E69740000000074736B5F6261636B67726F7569
:403E80006E64000074736B5F696F000074736B5F636F6E74726F6C0074736B5F746674004300232D302B2000686C4C006566674546470030313233343536373839414243F1
:403EC000444546003031323334353637383961626364656600000000F8B500BFF8BC08BC9E4670474D000000C9150000F8B500BFF8BC08BC9E46704729000000103F0000F0
:403F0000C880FF1F50020000000C00000000000000000000D033000003000000C43300000100000054340000030000004834000001000000000000000000000000000000B7
:403F4000000000000000000000000000403B0000000000000000000000000000000000000000000000000000183B00000000000000000000EC3A0000188FFF1FF83D000053
:403F8000043E0000103E00001C3E000000000000FFFFFFFFFFFFFFFFFFFFFFFFFFFFFFFFFFFFFFFFFFFFFFFFFFFFFFFFFFFFFFFFFFFFFFFFFFFFFFFFFFFFFFFFFFFFFFFF47
:403FC000FFFFFFFF01000000020000000300000004000000FFFFFFFF00000000000000000100000004000000040000000100000001000000010000000100000001000000B1
:40400000FFFFFFFFFFFFFFFFFFFFFFFFFFFFFFFFFFFFFFFFFFFFFFFFFFFFFFFFFFFFFFFFFFFFFFFFFFFFFFFFFFFFFFFFFFFFFFFFFFFFFFFFFFFFFFFFFFFFFFFFFFFFFFFFC0
:40404000FFFFFFFFFFFFFFFFFFFFFFFFFFFFFFFFFFFFFFFFFFFFFFFFFFFFFFFFFFFFFFFFFFFFFFFFFFFFFFFFFFFFFFFFFFFFFFFFFFFFFFFFFFFFFFFFFFFFFFFFFFFFFFFF80
:40408000FFFFFFFFFFFFFFFFFFFFFFFFFFFFFFFFFFFFFFFFFFFFFFFF03000000030000000300000003000000030000002C3E00003C3E0000443E0000503E00005C3E00007B
:4040C000683E0000743E0000843E00008C3E0000983E0000148FFF1F00000000EC8CFF1F7F800000030000000000A08C401901004800000000A24A040000000000000000EF
:4041000000000000000000000000000000000000000000000000000000000000A03E00000000000000000000000000000000000000000000000000000000000000000000A1
:4041400000000000000000000000000000000000000000000000000000000000B482FF1F0000000000000000000000000000000000000000000000000000000000000000EB
:4041800000000000000000000000000000000000000000000000000000000000000000000000000000000000000000000000000000000000000000000000000000000000FF
:4041C00000000000000000000000000000000000000000000000000000000000000000000000000000000000000000000000000000000000000000000000000000000000BF
:40420000000000000000000000000000000000000000000000000000000000000000000000000000000000000000000000000000000000000000000000000000000000007E
:40424000000000000000000000000000000000000000000000000000000000000000000000000000000000000000000000000000000000000000000000000000000000003E
:020000040003F7
:0200000480007A
:4000000001450040024F004009520040015B004002640040036500401A0001402A0101402D020140420301402D040140450501402A0601403C0701402D080140490901406C
:400040003A0A01403F0B0140210C0140360D0140490E01402E0F0140331401403E1501404216014042170140681801404C190140531A0140501B01400D4001401741014031
:400080000C4201400C430140034401400C450140094601401047014006480140024901401A4C01400E4D01400D500140035101407E0201400A1B00010101089A0939103041
:4000C0001118608061947C40278484018F0F870F88728B380302050406020D0815021B081F04231026012B012D012E0430023204331F360139083F04580459045C225F01AB
:40010000D804D904DC22DF0100400208031C04800504060408010A180C010F101215130214101502170718C019441A50210822042310285129502A102F0831043351354486
:40014000370238843A073B103C043E403F108620C0E7C23EC43FCA2FCCDFCE7F04030C0310031101160318011A02280329012C0330013501360239203F10580459045C2225
:400180005F0181028602870489208B108F08918093409540978099089D04A110A320A702A901AE01AF01B1FFB401B602BF01D804D904DC02DF010040021003800480050480
:4001C00008010A080B100E040F9010121204140116041A0C1BC01E401F4021022620281129542B402E042F883002320C33503402354438C439203A963C043E803F104440E8
:400200004502620379027B40808088028C04908093109404950299449C409D109E029F50A202A628B108B202C0ADC27EC4C7CAEFCCDFCE7FE020E604EE02190122012D01DE
:400240003101340139023F015602573D580459045B0C5C225D205F018E029E02AE01B001B202C040C103C9FFCAFFCBFFCDA0CF04D018D280D804D904DA04DB04DC21DD11F7
:40028000DF01E040E2C0E440E540E6C0E8C0EAC0ECC0EEC0000401800440080109400A0A0F02100411011201178018041B201C401D021E202202280229042A012B802D80E3
:4002C0002E802FA8314032153308354438043A803D803F80450246205A206202680269216B5071107202778079408A10920894049520988199449A819D109E029F50A3400B
:40030000A402AA40AF08B340C085C28BC48BCAFBCC5FCE1AD0C0D604D801DE08EE804040410346204710482849FF4AFF4BFF4DAF4E0F4F045018580459045A045C225D0160
:400340005F01604062C06440654066C068C06AC06CC06EC08D0197019F01A701A901B101BF01D203D302D804D904DB04DC22DD20DF01018003300680071008410A080B0CD6
:400380000C010F04100412011450160117042380284029902A842B402E022F343019318034453504370438803A013B283E80450246235620570169406A209208954096201F
:4003C000988199049A819C049E20A102A360A701AD40B402C035C25BC4B3CAEFCCDFCE1FD0C0E201E410EC08EE04050209210BD80D380E010FC01002119A1513176419986E
:400400001A011B021D9A1E0221FC2303240229022A022B982D982F0232013313350F360237E0388039023A023BA03E043F015409580459045B045C035F01D804D904DB04D0
:40044000DC22DF0100060120054009080A040C400E800F0410011280141015101C801D401E801F0424202570261E280129A02E502F8031093280360837523A023B103DA02D
:400480003E08460847205C415D045F20670269A06A0A70A47340820289108C049041910492549312942499809A089B529D219E02A180A280A3A0A401A568A61CAE80AF20C4
:4004C000C08EC2D6C469CABCCCFBCE75D6F0D810E410EA10EE04580459045C225F01808D8402860D88118A228E80900D92809462961498409C429E08A08DA48DA88DB20FBC
:40050000B480B670BA88BE10C021C106C230C5DEC6F0C7BCC83BC9FFCAFFCBFFCC22CEF0CF08D004D440D804D904DA04DB04DC20DF01E2C0E440E501E610E711E8C0E90194
:40054000EB11EC40ED01EE40EF01000601A004A005440740080409080A040D800EA00F08128017161D841F90284029202C042E022F2031093280344035A139203A023B106A
:400580003F1045A047084C404D044E085402562857046540662067209041912092549302940499809B5E9D209E02A240A403A548A694A780C0FFC2F6C478CAE5CCBBCE25ED
:4005C000D070D220D870E0800184050109800B040D04118415071738190A1B101D041F802156230925842D603108337F3580378039083F515280580459045B045C025D1029
:400600005F01D804D904DC22DF01000601A0040405A809080A240D08110112801501162224412504270829282B402C022FA032D03654370239203A223D883E1175018D809A
:400640008F40912092559302940496809B569D21A240A320A401A50CA614A7C0B010B110B204C0EFC226C4B8CAD7CCFCCEF5E440E604EC20EE024010410249FF4AFF4BFF17
:400680004DA04F045018580459045A045C225D015F01604062C06440654066C068C06AC06CC06EC0820194049503970C99059A029B0A9D029E029F0DA109A306A804AC0493
:4006C000B004B202B601B70FBB80BE01C010C102C501C620C809C9FFCAFFCBFFCDAFCE0FCF04D018D602D720D804D904DA04DB04DC01DD01DF01E040E2C0E440E540E6C00B
:40070000E8C0EAC0ECC0EEC0000601210501084009080A840D800E200F0814061C211D801F012680284029202B402F803108324034043694380439214001412045A04F0880
:40074000552062C066406ED16F7477027C027F808104C01EC2EFC4C0CA85CC7ACE07D03CD810E004002C021104100F02101C122219061A031C091D041E1020142430250128
:40078000260C28402D063101341F35063660388039203F114002464049FF4A074BFF4C404D204EF04F055008580459045A045C235D035F01604061A862406320D608D80449
:4007C000D904DB04DC22DD90DF0100020210050406810A860C010F8410901204160A19401A061B1020442A012B952E882FA030113194324034203504388039203A0A3F8CAB
:400800004004505052105C806402806082068340851086808C408D0493049420988099149A819C029D409E04A081A180A361A984C0BCC25BC4CECADFCC6FCE5FD004D6105C
:40084000D810E006E6041201150128012E022F0330033301350254015804590C5B0C5C295D205F0180038110823487038B088D018F0E922894039604980399019A1C9B0606
:400880009C2A9D0C9E149F03A620AA15AF0CB038B310B40FB70FBA22BB80BF04C063C105C5E0C60BC70CC816C9FFCAFFCBFFCEF0CF44D00CD401D804D904DA04DB04DC33B5
:4008C000DD33DF01E6C0EA40EB020002080109880A140E40121414021720188019101A041B011E402180220425042728280129402E403190370838A039083A143B013C0257
:400900003F024104480149114B015088510859015A185B805D807D40914093049480988099049A819B809D109E04A360A408A580AE04B280B740C008C21FC4C6CA18CC4C3E
:40094000CE0FD002D20CD61FDE10EC08EE02010203010438050B090B0A020D040E40110814141501162B1702180D1A101C101E2721042504264029043108323C33043403EA
:400980003503364038083E403F044030410649FF4AFF4BFF4DA04F04501856025711580459045A045B045C305D315F01604062C06440654066C068C06AC06CC06EC080073A
:4009C0008208840688068A098B028E099301940996069702A004A402AC0FB007B20EB301B502BA08C030C106C610C702C818C9FFCAFFCBFFCDAFCE0FCF04D018D280D804BC
:400A0000D904DA04DB04DC13DD11DF01E040E2C0E440E540E6C0E8C0EAC0ECC0EEC0020203980480051407020B200D800E2810A01180162018801B081D54200821082410A7
:400A4000260227042C502D102F9830023108370538203C803DA03E043F02410845084A084E08501052085C106D206E046F01700274A077108A018D4091809202931895105B
:400A8000970498219C509D20A040A180A214A320AC21AE02B080B108B204B340B424B501C0EFC2E4C42DCAE0CCC3CEF4D042D224D620EC60EE02001C02020418081C0A013C
:400AC0000E031204140716181C041E20201024082C1F3020361F3A805608580459045B045C235D905F01803381048311840C8507880489078C0C8E339233941195029711DA
:400B00009C089D019F0EA022A433A60CA80FAA30AC3FB318B40FB630B707BA20BF04C035C101C204C406C50EC6C0C809C9FFCAFFCBFFCC62CDA0CEF0CF41D00CD418D80457
:400B4000D904DA04DB04DC33DD33DF01E640E702E910EA30EB10ED10EE10EF120110020203900402058007180A400B210C840F8010A011C0130814101550164019801A406E
:400B80001B801E021F1024022688282129203108332034043680370438043B103D203E043F024410454047024E0A4F84562058805E026240630365406708800483208508FE
:400BC00088808D209110920493189724983199409B169D209E20A0A0A150A202A320A781A910B004C0FFC2BDC4FDCA0ECC56CEE6D0D0D230D688D838E050EC041220162063
:400C000030803308340836403B223E208710C430CCF0CE70E640012006080B20324051205402800882208A0897029C08A220A480A640AF08C0C0C210CC10D420D620E48026
:400C4000E620EE4053089702A480A640A802A920AA40AF10B120D420EA20EC401B08620282028F20A480A640A708AB01C610D840E280EE207B028302DC0159405C02640470
:400C8000802095029804AD01B004D401D601D801EC011B042410894095029C229D40C608C801E00108200B400D0147808A108D048F8095029C22AB04B410C20ED004E008F1
:400CC000E40CEA0827209F20A480AE40C880EE40A880EA205380561059045B205E805F02620466208A408F2099049A349B029C02A380AF40B220B382B604D407D607D80391
:400D0000E004E408E805EC09101070017C4088108C409002A801B002C408DC01DE04E002E204E804000F021408040A060C0D0E07100F110112141A0C1B011C0F1D0100AB28
:400D4000010F100A1CC0C00000030300800040BCBC00B400000000004000000000000000C000000000FFFF00FF00000000393900380000000038380008000000000100009B
:400D80000000000000000000000000000000000000000000000000000000000000000000000000000000000000000000000000000000000000000000000000000000000033
:400DC00000000000000000000000000000000000000000000000000000000000000000000000000000000000000000000000000000000000000000000000000000000000F3
:400E000000000000000000000000000000000000000000000000000000000000000000000000000000000000000000000000000000000000000000000000000000000000B2
:400E40000000000000000000000000000000000000000000000000000000000000000000000000000000000000000000000000000000000000000000000000000000000072
:0200000490006A
:0400000000004007B5
:0200000490105A
:04000000BC90ACAF55
:0200000490303A
:020000005B7C27
:0200000490402A
:4000000000000000000000000000000000000000000000000000000000000000000000000000000000000000000000000000000000000000000000000000000000000000C0
:400040000000000000000000000000000000000000000000000000000000000000000000000000000000000000000000000000000000000000000000000000000000000080
:400080000000000000000000000000000000000000000000000000000000000000000000000000000000000000000000000000000000000000000000000000000000000040
:4000C0000000000000000000000000000000000000000000000000000000000000000000000000000000000000000000000000000000000000000000000000000000000000
:0200000490501A
:0C00000000012E16106900012E316BE586
:00000001FF